:020000040800F2
:1000000000000220DD470008B9090008BB0900080C
:10001000BD090008BF090008C10900080000000070
:10002000000000000000000000000000C3090008FC
:10003000C509000800000000C7090008C909000838
:100040002D4800082D4800082D4800082D480008BC
:100050002D4800082D4800082D4800082D480008AC
:100060002D4800082D4800082D4800082D4800089C
:100070002D4800082D4800082D4800082D4800088C
:100080002D4800082D4800082D48000800000000F9
:100090000000000000000000000000002D480008E3
:1000A0002D4800082D4800082D4800082D4800085C
:1000B0002D4800082D4800082D4800082D4800084C
:1000C0002D4800082D4800082D4800082D4800083C
:1000D0002D4800082D4800082D48000800000000A9
:1000E0002D4800082D4800082D4800080000000099
:1000F0000000000000000000000000002D48000883
:10010000000000002D4800082D4800082D48000878
:1001100000000000000000000000000000000000DF
:100120002D4800082D4800082D4800082D480008DB
:100130002D48000800000000000000000000000042
:10014000000000000000000000000000D1090008CD
:100150002D4800082D4800082D4800082D480008AB
:100160002D4800082D480008000000000000000095
:10017000000000000000000000000000000000007F
:10018000000000002D4800080000000000000000F2
:080190002D4800082D4800086D
:1001980010B5054C237833B9044B13B10448AFF3B9
:1001A80000800123237010BDAC0500200000000072
:1001B800FC49000808B5034B1BB103490348AFF3DA
:1001C800008008BD00000000B0050020FC490008C0
:1001D80053B94AB9002908BF00281CBF4FF0FF31A6
:1001E8004FF0FF3000F074B9ADF1080C6DE904CEA2
:1001F80000F006F8DDF804E0DDE9022304B07047FA
:100208002DE9F047089D04468E46002B4DD18A42C1
:10021800944669D9B2FA82F252B101FA02F3C2F1F4
:10022800200120FA01F10CFA02FC41EA030E944085
:100238004FEA1C48210CBEFBF8F61FFA8CF708FBA6
:1002480016E341EA034306FB07F199420AD91CEB7E
:10025800030306F1FF3080F01F81994240F21C81B0
:10026800023E63445B1AA4B2B3FBF8F008FB1033F8
:1002780044EA034400FB07F7A7420AD91CEB04042D
:1002880000F1FF3380F00A81A74240F207816444FD
:10029800023840EA0640E41B00261DB1D440002382
:1002A800C5E900433146BDE8F0878B4209D9002DE6
:1002B80000F0EF800026C5E9000130463146BDE870
:1002C800F087B3FA83F6002E4AD18B4202D38242DA
:1002D80000F2F980841A61EB030301209E46002D89
:1002E800E0D0C5E9004EDDE702B9FFDEB2FA82F2DE
:1002F800002A40F09280A1EB0C014FEA1C471FFA3C
:100308008CFE0126200CB1FBF7F307FB131140EA22
:1003180001410EFB03F0884208D91CEB010103F1EF
:10032800FF3802D2884200F2CB804346091AA4B2B1
:10033800B1FBF7F007FB101144EA01440EFB00FE85
:10034800A64508D91CEB040400F1FF3102D2A645EA
:1003580000F2BB800846A4EB0E0440EA03409CE789
:10036800C6F12007B34022FA07FC4CEA030C20FA36
:1003780007F401FA06F31C43F9404FEA1C4900FA56
:1003880006F3B1FBF9F8200C1FFA8CFE09FB1811D3
:1003980040EA014108FB0EF0884202FA06F20BD946
:1003A8001CEB010108F1FF3A80F08880884240F296
:1003B8008580A8F102086144091AA4B2B1FBF9F0DA
:1003C80009FB101144EA014100FB0EFE8E4508D9D5
:1003D8001CEB010100F1FF346CD28E456AD902385A
:1003E800614440EA0840A0FB0294A1EB0E01A1423F
:1003F800C846A64656D353D05DB1B3EB080261EBAD
:100408000E0101FA07F722FA06F3F1401F43C5E986
:10041800007100263146BDE8F087C2F12003D840BC
:100428000CFA02FC21FA03F3914001434FEA1C47FE
:100438001FFA8CFEB3FBF7F007FB10360B0C43EAF0
:10044800064300FB0EF69E4204FA02F408D91CEBA0
:10045800030300F1FF382FD29E422DD9023863449E
:100468009B1B89B2B3FBF7F607FB163341EA03413E
:1004780006FB0EF38B4208D91CEB010106F1FF388D
:1004880016D28B4214D9023E6144C91A46EA004684
:1004980038E72E46284605E70646E3E61846F8E616
:1004A8004B45A9D2B9EB020864EB0C0E0138A3E75F
:1004B8004646EAE7204694E74046D1E7D0467BE740
:1004C800023B614432E7304609E76444023842E7B8
:1004D800704700BF72B6FEE700B595B03022002124
:1004E80008A804F0C5F90023039304930593069321
:1004F80007930193204A116C41F080511164126CEA
:1005080002F080520192019A02931C4B1A6842F43D
:1005180040421A601B6803F440430293029B012384
:1005280008934FF48033099302230E934FF480030A
:100538000F930E2310934FF4A8731193042312936F
:100548000823139308A802F021F888B90F2303930E
:1005580002230493002305934FF4805206920793D5
:10056800032103A802F072FA20B915B05DF804FB64
:10057800FFF7B0FFFFF7AEFF003802400070004001
:1005880000B583B002F090FCFFF7A6FF00F00AF96F
:1005980000F0B4F900F046FA00F044F94FF4FA70AC
:1005A80002F0AEFC00F094F84FF4FA7002F0A8FCE8
:1005B8000023ADF806300B4C204602F07BFD0121EC
:1005C800204602F0FBFD204602F054FEADF806007E
:1005D80002210DF1060000F0B9F80A2002F090FCA3
:1005E800E9E700BFC805002030B585B00C468DF896
:1005F8000F000C4D00224FF48071284602F0BCFB1E
:100608004FF0FF330093012322460DF10F010648F6
:1006180003F0E3F801224FF48071284602F0ACFBA6
:1006280005B030BD000402401006002010B582B0AD
:1006380040F020008DF804000B788DF805300B4C45
:1006480000224FF48071204602F096FB4FF0FF33F2
:10065800022201A9064802F0E4FF01224FF480714A
:10066800204602F089FB02B010BD00BF0004024022
:100678001006002070B582B006460D46A0238DF8FE
:10068800073000224FF480710F4802F075FB4FF0DD
:10069800FF3301220DF107010C4802F0C2FF0024CC
:1006A80008E04FF0FF3301223119084802F0B9FF82
:1006B8000134E4B2AC42F4D301224FF48071024811
:1006C80002F05AFB02B070BD000402401006002080
:1006D80010B582B00A238DF807300DF1070100200C
:1006E800FFF7A4FF0DF107010020FFF79FFF01248A
:1006F8008DF807400DF107012046FFF797FF8DF8A9
:1007080007400DF107010220FFF790FF8DF8074021
:100718000DF107010420FFF789FF06208DF8070077
:100728000DF10701FFF782FF8DF807400DF1070172
:100738001C20FFF77BFF04238DF807300DF107011C
:100748001D20FFF773FF02B010BD000010B582B086
:10075800FFF790FF124C01224FF40071204602F07F
:100768000BFB012002F0CCFB00224FF40071204665
:1007780002F002FB0DF106010720FFF735FF9DF897
:10078800063013F0100F01D102B010BD10238DF800
:1007980007300DF107010720FFF748FFF4E700BF16
:1007A8000004024030B589B00024039404940594F1
:1007B800069407940094194B1A6B42F080021A634E
:1007C8001A6B02F080020092009A01941A6B42F0B0
:1007D80001021A631A6B02F001020192019A029453
:1007E8001A6B42F002021A631B6B03F002030293B6
:1007F800029B0B4D22464FF44071284602F0BCFA8A
:100808004FF440730393012304930594069403A9BA
:10081800284602F0D1F909B030BD00BF00380240C7
:100828000004024000B585B00023009301930293B1
:1008380003931548154A02604FF480324260836082
:100848000361037680F82030C362114A8262C36074
:100858000122C26180F83030426102F0FFFB68B9C2
:100868000423009301230193002302936946064859
:1008780002F004FD28B905B05DF804FBFFF72AFE75
:10088800EEE7FFF727FEF6E7C80500200020014045
:100898000100000F00B589B000230393049305936A
:1008A80006930793026803F1804303F590339A4255
:1008B80002D009B05DF804FB0021019103F58C33E7
:1008C8005A6C42F480725A645A6C02F48072019233
:1008D800019A02911A6B42F001021A631B6B03F032
:1008E80001030293029B102303930323049303A998
:1008F800014802F061F9DCE70000024008B50E4843
:100908000E4B03604FF48273436000238360C3601F
:10091800036143614FF4007282611022C261036275
:10092800436283620A23C36202F01CFE00B908BD59
:10093800FFF7D0FDFBE700BF10060020003C004099
:1009480000B589B000230393049305930693079396
:100958000268154B9A4202D009B05DF804FB0021E9
:10096800019103F5FE331A6C42F400421A641A6CC2
:1009780002F400420192019A02911A6B42F00202BB
:100988001A631B6B03F002030293029B3823039341
:1009980002230493032306930623079303A903481A
:1009A80002F00AF9D8E700BF003C0040000402400A
:1009B800FEE7FEE7FEE7FEE7FEE770477047704791
:1009C80008B502F08BFA08BD08B5024800F02CFC07
:1009D80008BD00BF381B002082B0002100910B4BDE
:1009E8005A6C42F480425A645A6C02F48042009273
:1009F800009A01911A6C42F080521A641B6C03F041
:100A080080530193019B02B0704700BF0038024039
:100A1800034AD2F8883043F47003C2F8883070472C
:100A280000ED00E008B500220F49104802F0F1FF80
:100A380070B90F490D4803F003F860B90D490B4828
:100A480003F093FE50B9094803F011F848B908BDFE
:100A5800FFF740FDEDE7FFF73DFDEFE7FFF73AFD54
:100A6800F1E7FFF737FDF2E70400002068060020F1
:100A7800700000205400002012230B8000487047AB
:100A88002000002004230B80004870473400002019
:100A9800002393421ED200B510E00CF1370C01F888
:100AA80013C000014FEA430C0CF1010C4FF0000E8B
:100AB80001F80CE00133DBB2934209D24FEA107C13
:100AC800B0F1204FE9D20CF1300C01F813C0E8E77F
:100AD8005DF804FB7047000038B50B4BD3F8100ADB
:100AE800D3F8144AD3F8183AC01800D138BD074DC6
:100AF8000822A91CFFF7CCFF042205F112012046A9
:100B0800FFF7C6FFF2E700BF0070FF1F38000020A4
:100B180008B51A230B80FFF7DFFF014808BD00BFA7
:100B28003800002008B50A4628B90549054803F0E9
:100B380040FC034808BD0249024803F03AFCF8E7C4
:100B480038090020244A000810B50A46034C2146FB
:100B5800034803F02EFC204610BD00BF38090020D2
:100B68003C4A000808B50A4628B90549054803F073
:100B780020FC034808BD0249024803F01AFCF8E7C4
:100B880038090020504A000808B50A4628B905491E
:100B9800054803F00EFC034808BD0249024803F06B
:100BA80008FCF8E7380900205C4A00080020704774
:100BB800002070470020704710B50146044C2046BD
:100BC80003F0E5FD204603F0EBFD002010BD00BF5B
:100BD8006806002010B5064C00220649204603F09E
:100BE800CBFD0549204603F0D2FD002010BD00BF13
:100BF8006806002038130020380B002030B589B073
:100C08000023039304930593069307930368B3F1B2
:100C1800A04F01D009B030BD00250195164C236BBB
:100C280043F001032363236B03F001030193019B4A
:100C38004FF4C053039302230493032306930A2318
:100C4800079303A90D4801F0B7FF636B43F08003D6
:100C580063630295636C43F480436364636C03F4D9
:100C680080430293029B2A462946432002F09CF8BF
:100C7800432002F0D1F8CDE70038024000000240DE
:100C880008B500F57171D0F8040402F005FF08BD3D
:100C980008B5C1EBC10300EB8303D3F80822D0F8F1
:100CA800040402F025FF08BD08B5C1EBC10300EB41
:100CB80083039A6CD0F8040402F056FF08BD08B507
:100CC800D0F8040402F0F6FF08BD10B50446C36866
:100CD800022B09D10121D4F8040402F0D1FFD4F881
:100CE800040402F0A0FF10BDFFF7F4FBF2E70000D8
:100CF80010B50446D0F8040402F0C5FF2268D2F803
:100D0800003E43F00103C2F8003E236A23B1034AC0
:100D1800136943F00603136110BD00BF00ED00E046
:100D280008B5D0F8040402F0B8FF08BD08B5D0F83B
:100D3800040402F0E7FF08BD08B5D0F8040402F087
:100D4800CDFF08BD08B5D0F8040402F0EFFF08BDD8
:100D580008B5D0F8040402F0EBFF08BD02780AB128
:100D68000020704710B503461548C0F80434C3F88E
:100D7800C4024FF0A0430360042343600222C26010
:100D8800002303618261C36103624362C362036338
:100D980000F0F0F880B90A4C8021204600F01DFED2
:100DA80040220021204600F0F2FD80220121204649
:100DB80000F0EDFD002010BDFFF78CFBEBE700BF56
:100DC800381B0020D0F8C43211F0800F08D101F090
:100DD8007F01C1EBC10103EB810191F8FE0170476E
:100DE80001F07F01C1EBC10103EB810191F83E00E5
:100DF800704708B5D0F8C40200F012FD08BD000025
:100E080000487047401F00207047032805D8DFE8D6
:100E180000F005040205012070470320704708B55B
:100E2800D0F8C40200F03DF9FFF7EFFF08BD08B5A0
:100E380094461A466346D0F8C40200F044FCFFF713
:100E4800E4FF08BD08B5D0F8C40200F081FCFFF744
:100E5800DCFF08BD08B5D0F8C40200F019FDFFF7A3
:100E6800D4FF08BD08B5D0F8C40200F055FDFFF75F
:100E7800CCFF08BD08B5D0F8C40200F010FCFFF79D
:100E8800C4FF08BD08B5D0F8C40200F0D2FCFFF7D3
:100E9800BCFF08BD08B5D0F8C40200F092FCFFF70B
:100EA800B4FF08BD2DE9F04383B0D0F80080C1EB52
:100EB800C10300EB83035A6D1B6D9A4254D8074651
:100EC8000C469B1AC1EBC10200EB8202526C9A429B
:100ED80000D31A4602F103094FEA990915E006F111
:100EE80003094FEA9909C4EBC40507EB8505A96C0A
:100EF8003B7C0093B3B2E2B2404601F0BBF8AB6C66
:100F08003344AB646B6D33446B6508EB441303F5F2
:100F180010639B699BB24B4512D3C4EBC40207EB29
:100F28008202516D136D99420AD24BB15B1AC4EB20
:100F3800C40207EB8202566C9E42D0D31E46CEE70F
:100F4800C4EBC40007EB80073A6D7B6D9A420FD85B
:100F580004F00F040123A340D8F8344824EA03041A
:100F6800C8F83448002000E0012003B0BDE8F08351
:100F78000020FAE770B58AB0002800F09080054696
:100F8800046890F8BD333BB3032385F8BD33E36BA6
:100F980013F4807F01D100232B61286800F006FE3E
:100FA8002C4654F8106BEC460FCCACE80F000FCC75
:100FB800ACE80F0094E803008CE803002B1D0ECB6F
:100FC800304600F035FD044658B1022385F8BD339C
:100FD800012420460AB070BD80F8BC33FFF70EFE2E
:100FE800D2E70021286801F05FFA234616E0C3EB38
:100FF800C30205EB8202012182F83D1082F83C30E1
:10100800A2F84230002182F83F1051649164C3EB8A
:10101800C30205EB820211650133DBB269688B42BA
:10102800E5D316E0C4EBC40305EB8303002283F881
:10103800FD2183F8FC4183F8FF21C3F80422C3F89B
:101048000822C4EBC40305EB8303C3F81022013460
:10105800E4B2A142E6D82C4654F8106BEC460FCC0B
:10106800ACE80F000FCCACE80F0094E803008CE864
:1010780003002B1D0ECB304600F0D4FD044620B1F2
:10108800022385F8BD330124A3E7002385F838300F
:10109800012385F8BD33286801F0C3F999E70124D5
:1010A80097E7026890F8BC33012B19D010B50446B5
:1010B800012380F8BC33836A012B09D0206800F033
:1010C8006FFD206801F09FF9002084F8BC0310BD73
:1010D8008369012BF2D0936B43F480339363EDE77C
:1010E8000220704770B504460D460068066C00EB98
:1010F800411303F530639A682169012911D03449F5
:101108008E424ED03DB9C5EBC50304EB8303D3F83B
:101118001032002B56D0E9B22046FFF7B9FD002067
:1011280070BD12F0080F09D02A498E42F7D912F47F
:10113800004FF4D04FF400429A60F0E712F0200F0D
:1011480002D020229A60EAE712F0280FE7D121495D
:101158008E4206D912F4004F03D04FF400429A6031
:10116800DDE7C5EBC50204EB8202D2F804121B6965
:10117800C3F31203CB1AC2F81432D2F808320B4464
:10118800C2F8083215B9D2F8103223B1E9B22046B4
:10119800FFF77EFDC3E704F57172012101F0C6F97E
:1011A800F4E712F4004F03D04FF400429A60B6E718
:1011B80012F0200F01D020229A60E9B22046FFF7F2
:1011C80067FDACE704F57172002101F0AFF9A2E701
:1011D8000A31544F0A30544F38B5044603681D6C21
:1011E80003EB4113D3F8081B0E4A954207D903F5C0
:1011F800306311F4004F02D04FF400429A60204649
:10120800FFF73EFD074B9D4202D92369012B01D010
:10121800002038BD04F571720121206801F086F9BB
:10122800F6E700BF0A30544F2DE9F84F0446056829
:10123800284601F035F908B1BDE8F88F0646206860
:1012480001F0FDF80028F7D0206801F0F8F810F058
:10125800020F04D02268536903F002035361206827
:1012680001F0EDF810F0100F13D02268936923F005
:10127800100393612F6A07F00F08C7F34343022B4B
:1012880068D0062B00F084802268936943F010032D
:101298009361206801F0D3F810F4002F40F08A80A1
:1012A800206801F0CCF810F4802F40F0CC80206842
:1012B80001F0C5F80028C0F23681206801F0BFF8B7
:1012C80010F4006F0AD0D5F8083813F0010F40F079
:1012D80044812268536903F400635361206801F074
:1012E800AEF810F4805F40F03C81206801F0A7F868
:1012F80010F4005F40F09181206801F0A0F810F030
:10130800080F40F0A281206801F099F810F4801FBE
:1013180040F0A481206801F092F810F4001F40F01A
:10132800A781206801F08BF810F0804F40F0AA8167
:10133800206801F084F810F0040F3FF47DAF2368B3
:101348005D6815F0040F40F0A681226853682B43AE
:10135800536071E747F6F0731F4295D04FEA171BA9
:10136800C8EBC80904EB8909C7F30A12D9F80812AF
:10137800284600F0B3FFCBF30A02D9F80832134429
:10138800C9F80832D9F814321A44C9F814227BE78C
:10139800082204F57171284600F0A0FFC7F30A1768
:1013A800C8EBC80204EB8202D2F814321F44C2F818
:1013B800147269E7206801F046F80746B04616E05F
:1013C80005EB48130122C3F8082B41462046FFF7D6
:1013D80089FE1BE005EB48130822C3F8082B414699
:1013E8002046FFF7F9FE14E008F101087F08002FF6
:1013F8003FF456AF17F0010FF6D05FFA88F1206876
:1014080001F031F8814610F0010FD9D119F0080F19
:10141800E0D119F0100F04D005EB48131022C3F8DF
:10142800082B19F0200F04D005EB48132022C3F82D
:10143800082B19F4005FD7D005EB48134FF400527E
:10144800C3F8082BD0E7206801F005F80746B04636
:1014580029E051462046FFF727FC19F0080F04D071
:1014680005EB48130822C3F8082919F0100F04D017
:1014780005EB48131022C3F8082919F0400F04D0CF
:1014880005EB48134022C3F8082919F0020F04D0CD
:1014980005EB48130222C3F8082919F0800F3DD143
:1014A80008F101087F08002F3FF401AF17F0010F82
:1014B800F6D05FFA88FA5146206800F0DDFF8146D1
:1014C80010F0010FC9D008F00F03012101FA03F24F
:1014D800D5F8343823EA0203C5F8343805EB481345
:1014E800C3F8081923698B42B3D1C8EBC80304EBCE
:1014F8008303596C9A6C0A449A64B8F1000FA8D116
:10150800C8EBC80304EB83031B6D002BA1D104F5C2
:1015180071720121206801F009F89AE741462046D6
:10152800FFF7C0FCBCE7D5F8043823F00103C5F881
:10153800043894F8F433012B08D02046FFF7F0FB69
:101548002268536903F000435361B6E6002184F82A
:10155800F413204600F045FAF2E72046FFF7C8FBEF
:10156800B7E605F500677B6823F001037B6010216F
:10157800206800F021FB20E005EB46134FF67F3191
:10158800C3F80819D3F8002922F40012C3F8002977
:10159800D3F8002942F00062C3F80029C3F8081BF9
:1015A800D3F8002B22F40012C3F8002BD3F8002B39
:1015B80042F00062C3F8002B01366368B342DBD8FF
:1015C800FB6943F00113FB61236BDBB1D7F884306F
:1015D80043F00B03C7F884307B6C43F00B037B6448
:1015E800D5F8003823F4FE63C5F8003804F57172A5
:1015F800217C206800F09AFF2268536903F4805325
:10160800536172E67B6943F4005343F02B037B611B
:101618003B6943F00B033B61E2E7206800F075FF8C
:10162800206800F0C7FBE060256801F0BFFA0146BA
:10163800227B284600F042FA2046FFF746FB226844
:10164800536903F40053536156E62046FFF737FB0E
:101658002268536903F00803536154E600212046C9
:10166800FFF76AFB2268536903F48013536151E65C
:1016780000212046FFF75AFB2268536903F4001340
:1016880053614EE62046FFF75DFB2268536903F07D
:10169800804353614CE62046FFF75AFB55E690F825
:1016A800BC33012B0DD010B50446012380F8BC33A0
:1016B80080F83810006800F096FE002084F8BC031B
:1016C80010BD0220704738B505468C4611F0800FD2
:1016D80029D101F00F0ECEEBCE04A40004F5FC7462
:1016E8000444211DCEEBCE0E00EB8E0E00208EF8AA
:1016F800FD010CF00F0C81F800C08A60CB704A78AD
:101708000AB1A1F806C0022B1DD095F8BC33012BF5
:101718001CD0012385F8BC33286800F05CFB00204E
:1017280085F8BC0338BD01F00F00C0EBC00189008B
:10173800383129440431C0EBC00005EB8000012496
:1017480080F83D40D5E700230B71DEE70220E9E78A
:1017580010B504460A4611F0800F20D101F00F00A1
:10176800C0EBC0039B0003F5FC732344191DC0EBB9
:10177800C00004EB8000002380F8FD3102F00F0266
:101788000A7094F8BC33012B19D0012384F8BC33B8
:10179800206800F06FFB002084F8BC0310BD01F046
:1017A8000F00C0EBC0039B0038332344191DC0EB66
:1017B800C00004EB8000012380F83D30DEE7022002
:1017C800ECE710B501F00F04C4EBC401890001F582
:1017D800FC7101440431C4EBC40C00EB8C0CCCF854
:1017E8000822CCF810320023CCF814328CF8FD31E2
:1017F8008CF8FC410369012B06D064B9DAB20068A1
:1018080000F0A8FB002010BDC4EBC40C00EB8C0C4E
:10181800CCF80C22F1E7DAB2006800F043FCF1E7FB
:1018280001F00F01C1EBC10100EB8101D1F81402F5
:10183800704710B501F00F04C4EBC40189003831BA
:1018480001440431C4EBC40C00EB8C0CCCF84820E8
:10185800CCF850300023CCF8543001238CF83D30BC
:101868008CF83C400369012B06D064B9DAB20068F1
:1018780000F070FB002010BDC4EBC40C00EB8C0C16
:10188800CCF84C20F1E7DAB2006800F00BFCF1E785
:1018980038B501F00F054268954239D804460B4621
:1018A80011F0800F1FD1C1EBC101890001F5FC7156
:1018B80001440431C3EBC30300EB8303002283F824
:1018C800FD2101238B700D7094F8BC33012B21D0BE
:1018D800012384F8BC33206800F02AFD8DB1002074
:1018E80084F8BC0338BDC5EBC50189003831014413
:1018F8000431C5EBC50300EB8303012283F83D20C7
:10190800DFE704F57172217C206800F00FFEE6E73E
:101918000120E7E70220E5E701F00F034268934260
:1019280031D810B5044611F0800F1ED1C3EBC301A6
:10193800890001F5FC7101440431C3EBC30200EBDB
:101948008202002082F8FD0100228A700B7094F850
:10195800BC33012B19D0012384F8BC33206800F074
:1019680014FD002084F8BC0310BDC3EBC30189003B
:10197800383101440431C3EBC30200EB8202012079
:1019880082F83D00E0E7012070470220ECE710B440
:101998000468606A31B940EA0240A06200205DF83C
:1019A800044B70478C46A36A00EB1340002308E001
:1019B80003F1400104EB8101496800EB1140013358
:1019C800DBB20CF1FF318B42F2D340EA02400CF15A
:1019D8003F0104EB81014860E0E703685962002099
:1019E8007047704782B000230193019B0133019334
:1019F8000E4A934214D80369002BF6DA00230193A8
:101A0800036943F001030361019B01330193074A12
:101A1800934208D8036913F0010FF5D1002000E0C4
:101A2800032002B070470320FBE700BF400D03000E
:101A380084B010B5044603A880E80E00089B012B6B
:101A48001FD1A36B23F48033A363E36823F48403D7
:101A580023F04003E360E36823F44013E3600F9B43
:101A6800012B09D02046FFF7BDFF069B012B1BD099
:101A7800BDE8104004B07047E36843F48013E360A6
:101A8800F0E7E36843F04003E3602046FFF7AAFF6E
:101A98000C9B23B9A36B43F48033A363E5E7A36BE3
:101AA80023F48033A363E0E7A36843F00603A3604D
:101AB800A36843F02003A360DAE70000022A0AD0F3
:101AC8000921C26822F47052C260C36843EA8123C4
:101AD800C36000207047234B0B44234A93422FD9FD
:101AE800224B0B44224A93422CD9A1F57403A3F547
:101AF8001053204A934227D9A1F18373A3F5E743F2
:101B08001D4A934222D31D4B0B441D4A93421FD9B1
:101B18001C4B0B441C4A93421CD31C4B0B441C4AC1
:101B2800934219D3A1F1B773A3F55853194A9342B5
:101B380014D3194B0B44194A934211D20721C0E719
:101B48000F21BEE70E21BCE70D21BAE70C21B8E74B
:101B58000B21B6E70A21B4E70921B2E70821B0E76B
:101B68000621AEE7405327FFFF340C00401E1BFF41
:101B78003F420F007F4F120020D6130060B6E5FEEB
:101B88005FE3160000D3CEFE40771B00C05BB3FEB8
:101B9800C091210020753800E05459FEE09C4100B6
:101BA800836843F00103836000207047836823F053
:101BB800010383600020704782B0002301938901EC
:101BC80041F020010161019B01330193054A9342D1
:101BD80005D8036913F0200FF5D1002000E0032099
:101BE80002B07047400D030082B000230193102318
:101BF8000361019B01330193054A934205D80369A8
:101C080013F0100FF5D1002000E0032002B0704758
:101C1800400D0300D0F800381943C0F80018002020
:101C28007047000084B02DE9F041044607A880E819
:101C38000E00002306E003F1400204EB82020021BB
:101C4800516001330E2BF6D9119F27BBD4F8043805
:101C580043F00203C4F80438A36B43F40013A363EE
:101C6800A36B23F40023A363A36B23F48023A36350
:101C78000023C4F8003E04F50065D4F80038C4F821
:101C880000380C9B012B14D1099B6BB9002120460D
:101C9800FFF7C0FF11E0A36B23F40013A363A36B4A
:101CA80043F40023A363E3E701212046FFF7B2FFD3
:101CB80003E003212046FFF7ADFF10212046FFF780
:101CC8007BFF804608B14FF001082046FFF78CFFE4
:101CD80008B14FF0010800232B616B61EB610AE04A
:101CE800C3B94FF00060C2F8000900220A614FF63C
:101CF8007F328A6001330799994210D904EB431265
:101D080002F51061D2F800090028E9DB0020C2F8CA
:101D18000009EAE74FF09040C2F80009E5E7002320
:101D28000AE0C3B14FF0904CC2F800CB0022026128
:101D38004FF67F3282600133994211D904EB431286
:101D480002F53060D2F8006B002EEADB4FF0000C91
:101D5800C2F800CBEAE74FF0006CC2F800CBE5E729
:101D68002B6923F480732B610023A3616FF08043F8
:101D780063610A9B1BB9A36943F01003A361A269BD
:101D88000B4B1343A3610D9B1BB1A36943F00803DD
:101D9800A361012F04D04046BDE8F04104B070476C
:101DA800A36943F0804343F00403A361F3E700BF52
:101DB80000383C80D0F8083813F0060307D0022B0F
:101DC80007D0062B01D00F20704702207047002053
:101DD80070470220704710B591F800C04B78012B6E
:101DE80023D000F5006ED0F81C380CF00F04012247
:101DF800A24043EA0243C0F81C3800EB4C10D0F86C
:101E0800003B13F4004F0ED1D0F8003B8A68C2F3B0
:101E18000A02C97842EA8142134343F0805343F4EB
:101E28000043C0F8003B002010BDD0F81C280CF07F
:101E38000F0E03FA0EF39BB21343C0F81C3800EBE5
:101E48004C10D0F8003913F4004FECD1D0F8003919
:101E58008A68C2F30A02C97842EA814242EA8C5C83
:101E680043EA0C0343F0805343F40043C0F80039BD
:101E7800D9E7000030B40B784A78012A26D000EB65
:101E88004313D3F8002B002A52DBD0F83C480A78D9
:101E980002F00F024FF0010C0CFA02F224EA02429F
:101EA800C0F83C28D0F81C28097801F00F010CFA7A
:101EB80001FC22EA0C42C0F81C28D3F8001B234A74
:101EC8000A40C3F8002B002030BC704700EB4313D6
:101ED800D3F80029002A1EDBD0F83C580A7802F013
:101EE8000F02012404FA02F292B225EA0202C0F8B3
:101EF8003C28D0F81C28097801F00F018C40A4B2C6
:101F080022EA0404C0F81C48D3F80019104A0A4011
:101F1800C3F80029D7E7D3F8002942F00062C3F8D4
:101F28000029D3F8002942F08042C3F80029D3E7FA
:101F3800D3F8002B42F00062C3F8002BD3F8002B33
:101F480042F08042C3F8002B9FE700BF0078F3EF10
:101F5800007833EC70B40B784C78012C27D000EB68
:101F6800431000F530631C69E40CE4041C611C692F
:101F780024F0FF5424F4C0141C614C690CB18C6823
:101F88004C611C6944F400241C611C698D68C5F30C
:101F9800120C44EA0C041C61012A66D0D0F8003BFC
:101FA80043F00443C0F8003B002070BC70474C6904
:101FB8006CBB00EB4314D4F8105925F0FF5525F4F9
:101FC800C015C4F81059D4F8105945F40025C4F8C0
:101FD8001059D4F81059ED0CED04C4F81059012A21
:101FE80034D000EB4313D3F8002942F00442C3F87D
:101FF80000294B69002BD7D0D0F834380A7802F082
:102008000F0101228A401343C0F83438CCE700EBB3
:10201800431404F510642569ED0CED042561256968
:1020280025F0FF5525F4C01525618D684E69AE422F
:1020380000D94D61256945F40025256125694E695A
:10204800C6F3120C45EA0C052561C8E70A691AB1FE
:1020580000EB4311C1F8142900EB4310D0F8002914
:1020680042F00442C0F800299EE7CA68002A95D0C9
:102078005A6193E710B59DF8084084B903334FEAD5
:10208800930E4FF0000C08E000EB023303F5805389
:1020980051F8044B1C600CF1010CF445F4D30020FA
:1020A80010BD0000F0B583B00B784C78012C33D00C
:1020B80000EB431303F5306CDCF81040E40CE40447
:1020C800CCF81040DCF8104024F0FF5424F4C0147D
:1020D800CCF810404C69002C40F0CA80DCF8104065
:1020E8008D68C5F312052C43CCF81040DCF810407D
:1020F80044F40024CCF81040012A00F0D380CA78B8
:10210800012A00F0D680D3F8002B42F00442C3F82D
:10211800002B002003B0F0BD4C6984BB00EB4314D6
:10212800D4F8105925F0FF5525F4C015C4F81059F6
:10213800D4F8105945F40025C4F81059D4F81059AA
:10214800ED0CED04C4F81059012A4FD000EB4313ED
:10215800D3F8004944F00444C3F80049CC78012C72
:102168006DD04B69002BD4D0D0F834380A7802F0FF
:102178000F0101228A401343C0F83438C9E700EB45
:102188004314D4F81059ED0CED04C4F81059D4F8E0
:10219800105925F0FF5525F4C015C4F81059D4F886
:1021A80010598E684F6907EB060C0CF1FF3CBCFB1D
:1021B800F6FC494E06EACC4C45EA0C05C4F8105921
:1021C800D4F810594E69C6F312063543C4F81059AD
:1021D80004F51064CD78012DB6D1256925F0C045E8
:1021E8002561256945F000552561ADE70A691AB1F1
:1021F80000EB4314C4F81429CA78012A08D000EB6C
:102208004313D3F8002942F00442C3F8002980E7B9
:10221800D0F8082812F4807F08D100EB4311D1F8D8
:10222800002942F00052C1F80029E8E700EB431109
:10223800D1F8002942F08052C1F80029DFE7D0F830
:10224800084814F4807F0CD1D3F8004944F00054B6
:10225800C3F8004900928B8A0A78C968FFF70AFF19
:1022680057E7D3F8004944F08054C3F80049F1E730
:102278008D682C44013CB4FBF5F4DCF810501FFACF
:1022880084FE154E06EAC4442543CCF81050DCF809
:1022980010508C680EFB04F4C4F312042C43CCF8E1
:1022A800104029E7CA68002A3FF429AFCCF8142067
:1022B80025E7D0F8082812F4807F06D1D3F8002B40
:1022C80042F00052C3F8002B1DE7D3F8002B42F070
:1022D8008052C3F8002B16E70000F81F00B583B042
:1022E800844608464FEA920E02F00302002305E0F6
:1022F8000CF58051096840F8041B01337345F7D386
:102308009AB10CF5805CDCF8003001934FF0000CBA
:102318005FFA8CF3D900019BCB4000F8013B0CF12C
:10232800010C013A92B2002AF2D103B05DF804FB25
:102338000B784A78012A14D000EB4310D0F8002B10
:10234800002A06DB2BB1D0F8003B23F08043C0F80D
:10235800003BD0F8003B43F40013C0F8003B0020DA
:10236800704700EB4310D0F80029002A06DB2BB198
:10237800D0F8003923F08043C0F80039D0F800398C
:1023880043F40013C0F80039E9E70B784A78012ACA
:102398000ED000EB4310D0F8003B23F40013C0F834
:1023A800003BCB78023BDBB2012B15D900207047EC
:1023B80000EB4310D0F8003923F40013C0F80039BB
:1023C800CB78023BDBB2012BF0D8D0F8003943F0D0
:1023D8008053C0F80039E9E7D0F8003B43F0805358
:1023E800C0F8003BE2E7D0F8003823F4FE63C0F8F9
:1023F8000038D0F80038090101F4FE611943C0F82B
:10240800001800207047D0F8003E23F00303C0F8FE
:10241800003ED0F8043823F00203C0F80438002046
:102428007047D0F8003E23F00303C0F8003ED0F810
:10243800043843F00203C0F80438002070474269AA
:10244800806910407047D0F8183800F50060C069FE
:102458001840000C7047D0F8183800F50060C069C3
:10246800184080B2704700EB4111D1F8082B00F5F5
:10247800006040691040704710B4D0F81048D0F898
:10248800343801F00F02D340DB01DBB2234300EB09
:10249800411000F51060806818405DF8044B7047E3
:1024A800406900F00100704738B50546C36823F05D
:1024B800C043C360012913D019BBC36843F08043EC
:1024C800C3600024012000F01BFD01342846FFF7FB
:1024D800E7FF08B1312CF5D9322C14D0002038BDD3
:1024E800C36843F00053C3600024012000F008FDD6
:1024F80001342846FFF7D4FF0128EDD0312CF4D958
:10250800EAE70120EBE70120E9E7D0F8003923F4F6
:10251800FF6323F00703C0F80039D0F8043843F408
:102528008073C0F8043800207047000010B4046CB1
:10253800154B9C4203D9D0F8003B002B16DB002436
:10254800C0F8104BD0F8104B44F40024C0F8104BDE
:10255800D0F8104B44F01804C0F8104BD0F8104BCA
:1025680044F0C044C0F8104B012903D000205DF8A6
:10257800044B7047C0F8142BD0F8003B43F080237D
:10258800C0F8003BF2E700BF0A30544F002800F0C3
:10259800E08170B582B00446036813F0010F3BD0A8
:1025A8009F4B9B6803F00C03042B2CD09C4B9B681F
:1025B80003F00C03082B21D06368B3F5803F4FD09C
:1025C800B3F5A02F52D0964B1A6822F480321A60C5
:1025D8001A6822F480221A606368002B50D000F039
:1025E80089FC05468E4B1B6813F4003F14D100F09C
:1025F80081FC401B6428F5D90320B1E1884B5B6856
:1026080013F4800FD8D0864B1B6813F4003F03D017
:102618006368002B00F09F81236813F0020F54D0E9
:102628007F4B9B6813F00C0F3ED07D4B9B6803F0EB
:102638000C03082B33D0E368002B68D0794B0122B8
:102648001A6000F057FC0546754B1B6813F0020F23
:1026580054D100F04FFC401B0228F5D903207FE13C
:102668006F4A136843F480331360B5E76C4B1A68FC
:1026780042F480221A601A6842F480321A60ABE78A
:1026880000F038FC0546664B1B6813F4003FC3D0C6
:1026980000F030FC401B6428F5D9032060E1604B52
:1026A8005B6813F4800FC6D15D4B1B6813F0020FF3
:1026B80003D0E368012B40F05081594A136823F096
:1026C800F803216943EAC1031360236813F0080F74
:1026D80042D063696BB3534B0122C3F8802E00F0DC
:1026E80009FC05464E4B5B6F13F0020F34D100F026
:1026F80001FC401B0228F5D9032031E1484A136840
:1027080023F0F803216943EAC1031360DDE7454B71
:1027180000221A6000F0EEFB0546414B1B6813F0DF
:10272800020FD2D000F0E6FB401B0228F5D90320A7
:1027380016E13C4B0022C3F8802E00F0DBFB054677
:10274800374B5B6F13F0020F06D000F0D3FB401B32
:102758000228F5D9032003E1236813F0040F77D08A
:102768002F4B1B6C13F0805F33D1002301932C4B4C
:102778001A6C42F080521A641B6C03F08053019368
:10278800019B0125284B1B6813F4807F23D0A36885
:10279800012B34D0052B38D0214B1A6F22F00102BF
:1027A8001A671A6F22F004021A67A368002B3DD03B
:1027B80000F0A0FB06461A4B1B6F13F0020F46D120
:1027C80000F098FB801B41F288339842F3D903202C
:1027D800C6E00025D6E7144A136843F480731360F3
:1027E80000F088FB0646104B1B6813F4807FCED19F
:1027F80000F080FB801B0228F5D90320B0E0084ACE
:10280800136F43F001031367CFE7054B1A6F42F0CC
:1028180004021A671A6F42F001021A67C5E700BF7F
:1028280000380240000047420070004000F062FBA0
:102838000646524B1B6F13F0020F08D000F05AFBEC
:10284800801B41F288339842F3D9032088E0EDB920
:10285800A369002B00F08380484A926802F00C02BA
:10286800082A51D0022B17D0454B00221A6600F0D7
:1028780041FB0446414B1B6813F0007F42D000F037
:1028880039FB001B0228F5D9032069E03B4A136C89
:1028980023F080531364DBE7394B00221A6600F0FB
:1028A80029FB0546354B1B6813F0007F06D000F066
:1028B80021FB401B0228F5D9032051E0E369226A75
:1028C8001343626A43EA8213A26A5208013A43EA4E
:1028D8000243E26A43EA0263284A5360284B012212
:1028E8001A6600F007FB0446244B1B6813F0007FB0
:1028F80006D100F0FFFA001B0228F5D903202FE0CB
:1029080000202DE000202BE0012B2BD01B4B5B6817
:1029180003F48001E269914226D103F03F02216A63
:102928008A4223D1616A47F6C0721A40B2EB811F0E
:102938001ED103F44031A26A5208013AB1EB024FAA
:1029480018D103F07063E26AB3EB026F14D1002070
:1029580006E001207047012002E0012000E000208D
:1029680002B070BD0120FBE70120F9E70120F7E77D
:102978000120F5E70120F3E70120F1E700380240E4
:102988000000474208B52F4B9B6803F00C03082B47
:1029980001D02D4808BD2B4B5A6802F03F025B68F6
:1029A80013F4800F2AD0274B5968C1F3881C4FEACB
:1029B8004C11B1EB0C006EEB0E0E4FEA8E1343EA8E
:1029C80090638101091A63EB0E03DB0043EA51733C
:1029D800C90011EB0C0C43F10003990200234FEAE4
:1029E8008C2041EA9C51FDF7F3FB164B5B68C3F35F
:1029F800014301335B00B0FBF3F0CBE7114B59689F
:102A0800C1F3881C4FEA4C11B1EB0C006EEB0E0EB3
:102A18004FEA8E1343EA90638101091A63EB0E03B0
:102A2800DB0043EA5173C90011EB0C0C43F10003BE
:102A3800990200234FEA8C2041EA9C51FDF7C8FB1C
:102A4800D3E700BF003802400024F400002800F05B
:102A58009B8070B50D4604464F4B1B6803F0070377
:102A68008B4208D2CBB24C4A1370136803F00703A9
:102A78008B4240F08B80236813F0020F17D013F0BD
:102A8800040F04D0454A936843F4E05393602368E5
:102A980013F0080F04D0414A936843F460439360ED
:102AA8003E4A936823F0F003A1680B4393602368C0
:102AB80013F0010F32D06368012B21D09A1E012A2E
:102AC80025D9364A126812F0020F61D033498A6854
:102AD80022F0030213438B6000F00CFA06462F4BDA
:102AE8009B6803F00C036268B3EB820F16D000F00A
:102AF80001FA801B41F288339842F0D9032042E062
:102B0800264A126812F4003FE0D101203BE0234A34
:102B1800126812F0007FD9D1012034E01E4B1B68E7
:102B280003F00703AB4207D9EAB21B4B1A701B68C4
:102B380003F00703AB422DD1236813F0040F06D02E
:102B4800164A936823F4E053E1680B4393602368C3
:102B580013F0080F07D0114A936823F460432169E2
:102B680043EAC1039360FFF70DFF0C4B9B68C3F367
:102B780003130B4AD35CD8400A4B18600A4B1868F9
:102B880000F06CF9002070BD012070470120FAE7C1
:102B98000120F8E70120F6E7003C02400038024037
:102BA800144A0008000000206C000020014B18683F
:102BB800704700BF0000002000230F2B00F2D280D6
:102BC80070B582B060E085685E000324B44025EAF1
:102BD8000405CC68B4402C438460456825EA0205A6
:102BE8004C68C4F300129A402A4342605AE0DC0859
:102BF800083450F8246003F0070295000F22AA4019
:102C080026EA020E0A69AA4042EA0E0240F8242087
:102C18005CE0042200E0002202FA0EF22A430234A9
:102C2800514D45F82420514A14686FEA0C0224EAF1
:102C38000C054E6816F4803F01D04CEA04054B4C55
:102C48002560646802EA04054E6816F4003F01D066
:102C58004CEA0405454C6560A46802EA04054E6820
:102C680016F4801F01D04CEA0405404CA560E468C6
:102C780022404D6815F4001F01D04CEA04023B4C79
:102C8800E26001330F2B6BD801229A400C6804EAEA
:102C9800020C32EA0404F4D14C6804F00304013C49
:102CA800012C90D94A6802F00302032A09D0C468AB
:102CB8005D000322AA4024EA02048A68AA4022434B
:102CC800C2604A6802F00302022A90D004684FEA00
:102CD800430E032202FA0EF224EA02044A6802F0C2
:102CE800030202FA0EF2224302604A6812F4403FDD
:102CF800C7D0002201921E4A546C44F480445464A4
:102D0800526C02F480420192019A9C08A51C164A52
:102D180052F8255003F003024FEA820E0F2202FAFE
:102D28000EF225EA0205134A90423FF474AF02F509
:102D3800806290420ED002F5806290420CD002F57B
:102D4800806290420AD002F5806290423FF461AFFF
:102D5800072261E701225FE702225DE703225BE7C2
:102D680002B070BD704700BF00380140003C014010
:102D780000380240000002400AB18161704709042E
:102D880081617047074AD36823F4E0631B041B0C76
:102D9800000200F4E060034343F0BF6343F40033F0
:102DA800D360704700ED00E000B5194BDB68C3F352
:102DB8000223C3F1070CBCF1040F28BF4FF0040C29
:102DC80003F1040EBEF1060F18D9033B4FF0FF3E86
:102DD8000EFA0CFC21EA0C0199400EFA03F322EAE0
:102DE8000303194300280BDB0901C9B200F1604055
:102DF80000F5614080F800135DF804FB0023E5E767
:102E080000F00F000901C9B2024B1954F4E700BFE2
:102E180000ED00E014ED00E0002807DB00F01F02E1
:102E2800400901239340024A42F82030704700BF0E
:102E380000E100E00138B0F1807F0BD24FF0E023D1
:102E48005861054AF02182F8231000209861072272
:102E58001A6170470120704700ED00E010B5044684
:102E68000E4B18784FF47A73B3FBF0F30C4A1068E2
:102E7800B0FBF3F0FFF7DEFF68B90F2C01D9012092
:102E88000AE0002221464FF0FF30FFF78DFF054B87
:102E98001C60002000E0012010BD00BF6800002079
:102EA800000000206C00002008B50B4B1A6842F4A3
:102EB80000721A601A6842F480621A601A6842F452
:102EC80080721A600320FFF75DFF0020FFF7C6FF3E
:102ED800FDF782FD002008BD003C0240034A11684E
:102EE800034B1B780B441360704700BF6021002020
:102EF80068000020014B1868704700BF602100205F
:102F080038B50446FFF7F6FF0546B4F1FF3F02D097
:102F1800044B1B781C44FFF7EDFF401BA042FAD37B
:102F280038BD00BF680000204A4B5A6822F440327E
:102F38005A605A6841680A435A600268536823F421
:102F48008073536002685368016943EA0123536040
:102F58000268536823F040735360026853688168BD
:102F68000B4353600268936823F40063936002681C
:102F78009368C1680B439360826A374B9A4257D073
:102F88000268936823F07063936002689368816AAB
:102F98000B4393600268936823F040539360026880
:102FA8009368C16A0B4393600268936823F0020335
:102FB800936002689368017E43EA4103936090F846
:102FC8002030002B3FD00268536843F400635360FD
:102FD8000268536823F46043536001684B68426A8F
:102FE800013A43EA42334B600268D36A23F4700320
:102FF800D3620168CB6AC269013A43EA0253CB62E1
:103008000268936823F4007393600268936890F8E9
:10301800301043EA412393600268936823F4806385
:10302800936002689368416943EA8123936070471B
:103038000268936823F0706393600268936823F0D2
:1030480040539360B0E70268536823F40063536009
:10305800CAE700BF002301400100000F38B310B5D4
:103068000446036C43B1236C13F0100F0BD00120FE
:10307800002384F83C3010BDFDF70CFC002363648A
:1030880084F83C30EFE7236C23F4885323F00203E1
:1030980043F0020323642046FFF746FF00206064E4
:1030A800236C23F0030343F001032364E0E70120CA
:1030B8007047000082B00023019390F83C30012B48
:1030C8006ED0012380F83C3003689A6812F0010F33
:1030D80013D19A6842F001029A60344B1B68344A53
:1030E800A2FB03239B0C03EB4303019302E0019B28
:1030F800013B0193019B002BF9D10268936813F0FF
:10310800010F42D0036C23F4E06323F0010343F47E
:1031180080730364536813F4806F05D0036C23F441
:10312800405343F480530364036C13F4805F19D055
:10313800436C23F006034364002380F83C306FF0AF
:10314800220313601B4B5B6813F01F0F0DD103683C
:103158009A6812F0405F25D19A6842F080429A60DE
:1031680000201BE000234364E6E70368124A934209
:1031780001D0002012E09A6812F0405F14D19A68DA
:1031880042F080429A60002008E0036C43F010038C
:103198000364436C43F001034364002002B07047AA
:1031A8000220FBE70020F9E70020F7E700000020F5
:1031B80083DE1B43002301400020014070B5044614
:1031C8000D4603689A6812F4806F03D09B6813F465
:1031D800807F19D1FFF78EFE064623681A6812F021
:1031E800020F20D1B5F1FF3FF7D0B5B923681B68AE
:1031F80013F0020FF1D1236C43F00403236400237E
:1032080084F83C30032032E0036C43F0200303646D
:10321800002380F83C30012029E0FFF76BFE801B7B
:10322800A842DAD9E2E76FF012021A60236C43F47D
:103238000073236423689A6812F0405F16D1207ED9
:10324800B0B9DA6A12F4700F03D09B6813F4806F78
:103258000DD1236C23F480732364236C13F4805FF3
:1032680005D1236C43F00103236400E0002070BD06
:103278000020FCE70368D86C7047000030B482B0C7
:103288000023019390F83C30012B00F0C08001230B
:1032980080F83C300B68092B41D90468E2689BB27E
:1032A80003EB43031E3B4FF0070C0CFA03F322EA2F
:1032B8000303E3600468E2680B8803EB43031E3BE7
:1032C8008D6805FA03F31343E3604B68062B3DD87A
:1032D8000468626B03EB8303053B4FF01F0C0CFA89
:1032E80003F322EA030363630468626B4B6803EB2E
:1032F8008303053BB1F800C00CFA03F3134363637F
:103308000268444B9A4251D00268424B9A425AD0C2
:10331800002380F83C30184602B030BC704704687F
:1033280022699BB203EB43034FF0070C0CFA03F33B
:1033380022EA03032361046822690B8803EB430331
:103348008D6805FA03F313432361BEE70C2B16D8E7
:1033580005682A6B03EB8303233B1F2404FA03F35A
:1033680022EA03032B6305682A6B4B6803EB83038C
:10337800233B0C8804FA03F313432B63C0E7056867
:10338800EA6A03EB8303413B1F2404FA03F322EAAE
:103398000303EB620568EA6A4B6803EB8303413B6E
:1033A8000C8804FA03F31343EB62A9E70B68122BAA
:1033B800AAD1194B5A6822F400025A605A6842F49A
:1033C80080025A60A0E70B68144A934201D0112B7F
:1033D8009ED1114B5A6822F480025A605A6842F40E
:1033E80000025A600A680D4B9A4291D10C4B1B6837
:1033F8000C4AA2FB03239B0C03EB83035B000193A2
:10340800019B002B84D0019B013B0193F8E702202C
:1034180082E700BF00200140002301401200001095
:103428000000002083DE1B432DE9F04782B00546EB
:10343800884617461E46FFF75DFD0A9B1B1A03EBDD
:103448000609FFF757FD82462B4B1B68C3F3CB33A6
:1034580009FB03F301932B689C6838EA04030CBF4B
:103468004FF0010C4FF0000CBC4540D0B6F1FF3FC7
:10347800F1D0FFF73FFDA0EB0A0048450AD2B9F1A9
:10348800000F07D0019A02B14A46019B013B019304
:103498009146E0E72A68536823F0E00353606B68BD
:1034A800B3F5827F0BD0AB6AB3F5005F14D001236C
:1034B80085F85130002385F85030032018E0AB68B8
:1034C800B3F5004F02D0B3F5806FECD12A681368CA
:1034D80023F040031360E6E72A68136823F40053D7
:1034E80013602A68136843F400531360DFE7002071
:1034F80002B0BDE8F08700BF0000002010B584B01E
:103508000446164B1868164BA3FB0030400D4FF4C9
:103518007A7303FB00F003906368B3F5827F0BD0E6
:10352800039BBBB1039B013B039323689B6813F088
:10353800800FF5D100200EE000920B46002280217A
:103548002046FFF771FF30B1636D43F020036365D8
:10355800032000E0002004B010BD00BF00000020E0
:10356800819F5E1600285AD010B50446436A33B9C5
:103578004368B3F5827F05D00023C36102E00023CE
:10358800036143610023A36294F85130002B40D0BB
:10359800022384F851302268136823F04003136033
:1035A800636803F48273A26802F404421343E26876
:1035B80002F400621343226902F0020213436269B3
:1035C80002F001021343A26902F400721343E26994
:1035D80002F038021343226A02F080021343A26AFF
:1035E80002F40052216813430B60638B03F0040359
:1035F800626A02F01002216813434B602268D369A3
:1036080023F40063D36100206065012384F85130FE
:1036180010BD84F850302046FDF792F9B8E7012034
:1036280070472DE9F04383B01D4690F85030012BC8
:1036380000F0D180044688469146012380F8503036
:10364800FFF758FC074694F85160F6B2012E40F097
:10365800AF80B8F1000F00F0AC80B9F1000F00F0B6
:10366800A880032384F8513000236365C4F83080B0
:10367800A4F83490A4F83690A363A387E38763641F
:103688002364A368B3F5004F1ED023681A6812F0AC
:10369800400F03D11A6842F040021A60E368B3F59C
:1036A800006F1CD0636813B1B9F1010F52D1226BBE
:1036B800236812781A73236B01332363E38E9BB25A
:1036C800013B9BB2E38645E02268136823F0400380
:1036D80013602268136843F480431360D5E7636876
:1036E80013B1B9F1010F16D1226B23681288DA6081
:1036F800236B02332363E38E9BB2013B9BB2E386C9
:1037080009E0FFF7F7FBC01BA84202D3B5F1FF3F62
:1037180059D1002D59D0E38E9BB2002B33D02368AA
:103728009A6812F0020FECD0226B1288DA60236BD1
:1037380002332363E38E9BB2013B9BB2E386EAE745
:10374800FFF7D8FBC01BA84202D3B5F1FF3F3ED11B
:10375800002D3ED0E38E9BB2ABB123689A6812F07D
:10376800020FEDD0226B12781A73236B0133236397
:10377800B4F836C01FFA8CFC0CF1FF3C1FFA8CFC25
:10378800A4F836C0E6E73A4629462046FFF7B6FED3
:1037980008B120236365A36833B901932368DA6805
:1037A80001929B680193019B636D13B9002600E0A9
:1037B8000226012384F85130002384F85030304623
:1037C80003B0BDE8F0830326F3E70326F1E70326F9
:1037D800EFE70326EDE70226F1E72DE9F04383B092
:1037E8001F460A9D90F85030012B00F010810446C6
:1037F80088469146012380F85030FFF77BFB064648
:1038080094F85130DBB26268012B0AD0B2F5827F9E
:1038180040F0E380A268002A40F0E980042B40F0E1
:10382800E880B8F1000F00F0E680B9F1000F00F071
:10383800E480002F00F0E38094F85130DBB2042BD1
:1038480002D0052384F8513000236365C4F838900A
:10385800E787A787C4F83080E786A7862364636470
:1038680023681A6812F0400F03D11A6842F0400228
:103878001A60E368B3F5006F11D063680BB1012FCC
:103888000BD1226B236812781A73236B01332363DD
:10389800E38E9BB2013B9BB2E38601276BE0636832
:1038A8000BB1012F0BD1226B23681288DA60236BCE
:1038B80002332363E38E9BB2013B9BB2E38601276D
:1038C8001CE023689A6812F0010F0ED0E28F92B2C2
:1038D8005AB1DA68A36B1A80A36B0233A363E38F30
:1038E8009BB2013B9BB2E3870127FFF703FB801BD9
:1038F800A84203D3B5F1FF3F40F08380E38E9BB22B
:103908001BB9E38F9BB2002B53D023689A6812F03F
:10391800020FD6D0E28E92B2002AD2D0002FD0D099
:10392800226B1288DA60236B02332363E38E9BB227
:10393800013B9BB2E3860027C3E723689A6812F02D
:10394800010F0ED0E28F92B25AB1DA68A36B1A70E7
:10395800A36B0133A363E38F9BB2013B9BB2E38765
:103968000127FFF7C7FA831BAB4202D3B5F1FF3F2C
:1039780049D1002D49D0E38E9BB213B9E38F9BB296
:10398800BBB123689A6812F0020FD6D0E28E92B2C9
:10399800002AD2D0002FD0D0226B12781A73236B52
:1039A80001332363E38E9BB2013B9BB2E38600277E
:1039B800C3E7324629462046FFF7A0FD48B9A36869
:1039C80063B901932368DA6801929B680193019BAC
:1039D80004E020236365012000E00220012384F82D
:1039E8005130002384F8503003B0BDE8F083022042
:1039F800F4E70220F2E70120F0E70120EEE70120DA
:103A0800ECE70320EAE70320E8E70320E6E70220E3
:103A1800EAE798B108B503460020C3F8B802C3F82E
:103A2800C002C3F8CC0209B1C3F8B412012183F86B
:103A38009C121A701846FDF791F908BD03207047CB
:103A480010B582B00023ADF8063061B10446C0F865
:103A5800B812CB6A4BB10DF106009847C4F8CC02F6
:103A6800002002B010BD0320FBE70020F9E708B5ED
:103A7800FDF7D5F908BD08B5D0F8B83213B11B6801
:103A8800984708BD0320FCE708B5D0F8B8320BB159
:103A98005B689847002008BD38B5044600F2AA259F
:103AA800284600F065F90123C4F89432B4F8B0321E
:103AB800C4F8983294F8AA1201F01F03012B0DD014
:103AC800022B10D02BB101F080012046FDF7C2F97E
:103AD80003E02946204600F00AFB38BD2946204667
:103AE80000F03DFBF9E72946204600F06CFBF4E7BF
:103AF80038B504460D4641BB1346D0F89422032A34
:103B080001D0084638BDD0F85C11D0F86021914248
:103B180009D890F89C32DBB2032B0FD0204600F076
:103B280091FC2846EEE7891AC0F85C118A4228BF42
:103B38000A46194600F07EFC2846E3E7D0F8B8327A
:103B48001B69002BEAD09847E8E790F89C32DBB273
:103B5800032B01D00020D5E7D0F8B8329B690BB110
:103B68009847CFE70020CDE738B504460D46002931
:103B78004AD11346D0F89422022A05D094F8A032EC
:103B8800012B3CD0284638BDC269016A8A420ED84A
:103B98008A4218D094F89C32DBB2032B27D08021BC
:103BA8002046FDF757F9204600F057FCE6E7521A81
:103BB800C261194600F027FC00231A461946204620
:103BC800FDF768F9DAE783699942E3D8D0F89822D3
:103BD8009342DFD20022114600F015FC0021C4F800
:103BE80098120B460A462046FDF754F9C6E7D4F862
:103BF800B832DB68002BD2D020469847CFE70023A5
:103C080084F8A0322846BEE790F89C32DBB2032B3A
:103C180001D00020B7E7D0F8B8325B690BB19847FC
:103C2800B1E70020AFE7012380F89C320023C0F8F9
:103C380094324360C0F8A432D0F8B832F3B170B50A
:103C48000446D0F8BC221AB15B680BB10021984732
:103C58004023002211462046FDF7E9F80126A4F882
:103C680064614025C4F860512B460022802120461B
:103C7800FDF7DDF8A6842562002070BD032070479B
:103C880001740020704790F89C32DBB280F89D32B6
:103C9800042380F89C320020704790F89C32DBB2F5
:103CA800042B01D00020704790F89D32DBB280F8D9
:103CB8009C32F7E7D0F8B82262B108B590F89C3288
:103CC800DBB2032B01D0002008BDD36923B198478C
:103CD8000020F9E7032070470020F5E7D0F8B82264
:103CE80062B108B590F89C32DBB2032B01D00020FA
:103CF80008BD136A23B198470020F9E703207047ED
:103D08000020F5E7D0F8B82262B108B590F89C32E7
:103D1800DBB2032B01D0002008BD536A23B19847BA
:103D28000020F9E7032070470020F5E700207047DE
:103D380008B5012380F89C32D0F8B83213B15B681B
:103D480001799847002008BD0346002002E00130B1
:103D5800C0B201331A78002AF9D1704708B54B88E8
:103D6800012B00D008BDC0F8A43200F06BFBF9E7C6
:103D78000B7803704B7843708B78CA7843EA022338
:103D880043800B794A7943EA022383808B79CA7985
:103D980043EA0223C380704710B504468021FDF72B
:103DA80059F800212046FDF755F810BD30B583B00D
:103DB80004460D460023ADF806304A88130A013B35
:103DC800062B00F2AB80DFE803F0041F33A9A98DAE
:103DD8009A00D0F8B4321B680DF10601007C9847B0
:103DE800EA88002A00F0A380BDF80630002B00F016
:103DF80099809A4228BF1A46ADF806200146204607
:103E080000F0F4FA03B030BD037C43B9D0F8B832FF
:103E18009B6A0DF10600984702234370E0E7D0F84B
:103E2800B832DB6A0DF10600984702234370D7E7E2
:103E3800D2B2052A52D8DFE802F003101D2A37440F
:103E4800D0F8B4325B6823B10DF10601007C9847C5
:103E5800C6E72946FFF7A0FFD4E7D0F8B4329B683D
:103E680023B10DF10601007C9847B9E72946FFF711
:103E780093FFC7E7D0F8B432DB6823B10DF1060130
:103E8800007C9847ACE72946FFF786FFBAE7D0F8E9
:103E9800B4321B6923B10DF10601007C98479FE7F6
:103EA8002946FFF779FFADE7D0F8B4325B6923B153
:103EB8000DF10601007C984792E72946FFF76CFF51
:103EC800A0E7D0F8B4329B6923B10DF10601007C5C
:103ED800984785E72946FFF75FFF93E72946FFF7ED
:103EE8005BFF8FE7037C33B9D0F8B8325B6B0DF119
:103EF8000600984774E72946FFF74EFF82E7037CE0
:103F080043B9D0F8B8321B6B0DF106009847072368
:103F1800437065E72946FFF73FFF73E72946FFF738
:103F28003BFF6FE729462046FFF736FF6AE7204642
:103F380000F088FA66E738B504468B88FBB9CB8869
:103F4800EBB94B887F2B1AD803F07F0590F89C3289
:103F5800DBB2032B0CD080F89E522946FCF78AFF6F
:103F6800204600F06FFA35B1022384F89C3209E04C
:103F7800FFF712FF06E0012384F89C3202E0204696
:103F8800FFF70AFF38BD000070B504460E468D786D
:103F98002E4B1D70012D10D890F89C32DBB2022BED
:103FA8000FD0032B23D0FFF7F7FE284B19782046B4
:103FB800FFF76AFD0325284670BDFFF7EDFE0325D0
:103FC800F9E78DB145602946FFF755FD054620B153
:103FD80031462046FFF7E0FEEDE7204600F032FAD2
:103FE800032384F89C32E6E700F02CFAE3E7CDB12E
:103FF80041688D4225D0C9B2FFF746FD134B1978A9
:1040080061602046FFF737FD0546B0B131462046CE
:10401800FFF7C2FE21792046FFF736FD022384F818
:104028009C32C8E7022380F89C3245602946FFF796
:104038002BFD204600F006FABDE7204600F002FA04
:10404800B9E700F0FFF90025B5E700BF64210020BB
:1040580008B5CB88012B0BD190F89C32DBB2022B30
:1040680009D9032B09D10122011D00F0BFF901E094
:10407800FFF792FE08BD5BB213B9FFF78DFEF9E7B3
:104088000146002341F8083F012200F0AFF9F1E7AB
:1040980008B590F89C32013B022B12D8CB88022B32
:1040A8000CD10123C360D0F8A4320BB10323C36041
:1040B800022200F10C0100F099F908BDFFF76CFE2F
:1040C800FBE7FFF769FEF8E708B590F89C32013B7B
:1040D800022B09D84B88012B00D008BD0023C0F85B
:1040E800A43200F0AFF9F8E7FFF756FEF5E738B568
:1040F8000C7804F06004202C06D0402C04D054B175
:10410800FFF74AFE002404E0D0F8B8329B689847CD
:104118000446204638BD4D78092D1DD8DFE805F046
:1041280012191C161C08051C0F0BFFF73FFEF0E7C1
:10413800FFF701FFEDE7FFF727FF0446E9E7FFF781
:1041480087FFE6E7FFF7A4FF2C46E2E7FFF706FE46
:10415800DFE7FFF7B9FFDCE7FFF71EFED9E770B529
:1041680005460C460B7803F06003202B07D0402B44
:1041780005D023B1FFF710FE0026304670BD95F834
:104188009C32013B022B18D82379012B0FD8D5F884
:10419800B8329B682146284698470646E388002B94
:1041A800EBD10028E9D1284600F04CF9E5E7214693
:1041B8002846FFF7F1FD0026DFE721462846FFF7EE
:1041C800EBFD0026D9E7F8B506460D468B880C7836
:1041D80004F06004202C08D0D9B2402C05D06CB172
:1041E8002946FFF7D9FD002406E0D6F8B8329B68C7
:1041F80029463046984704462046F8BD6F78012F77
:104208002FD0032F05D0002F59D02946FFF7C4FD22
:10421800F2E790F89C32DBB2022B05D0032B12D0C8
:104228002946FFF7B9FDE7E709B1802904D12946F6
:104238003046FFF7B1FDDFE7FCF70CFE8021304682
:10424800FCF708FED8E76B8823B919B1802901D09B
:10425800EB881BB1304600F0F5F8CDE7FCF7FAFD26
:10426800F8E790F89C32DBB2022B05D0032B12D072
:104278002946FFF791FDBFE709B1802904D12946F6
:104288003046FFF789FDB7E7FCF7E4FD80213046AB
:10429800FCF7E0FDB0E76B88002BADD111F07F0F84
:1042A8000AD1304600F0CEF8D6F8B8329B682946D5
:1042B8003046984704469FE7FCF7D4FDF1E790F8AD
:1042C8009C22D2B2022A06D0032A29D02946FFF717
:1042D80063FD3C4690E709B1802913D113F0800FA4
:1042E80015D101F07F0101EB8101890001F5A87169
:1042F8003144043100230B600222304600F076F886
:104308003C4679E72946FFF747FD3C4674E701F04C
:104318007F0101EB81018900103131440431E9E763
:104328005BB2002B1FDB01F00F0202EB820200EBF5
:104338008202B2F8642122B3002B27DB01F07F034D
:1043480003EB83039C0004F5A8743444043409B1D6
:10435800802924D10023236002222146304600F020
:1043680045F83C4648E701F00F0202EB820200EBF9
:104378008202928C002ADFD12946FFF70DFD3C46C8
:104388003AE72946FFF708FD3C4635E701F07F0389
:1043980003EB83039C00103434440434D7E73046DD
:1043A800FCF710FD10B101232360D5E7002323603B
:1043B800D2E7D0B170B50D4616460446FFF7C4FCE7
:1043C800431C5B009BB233802B7003236B7002236A
:1043D80007E0EA5401345A1CD2B20021A95402332E
:1043E800DBB22278002AF4D170BD704708B51346B5
:1043F8000222C0F894228361C3610A460021FCF7B7
:1044080041FD002008BD08B513460A460021FCF707
:1044180039FD002008BD08B513460322C0F89422D0
:10442800C0F85831C0F85C310A460021FCF732FD6B
:10443800002008BD08B513460A460021FCF72AFDEE
:10444800002008BD08B50422C0F8942200231A46AB
:104458001946FCF717FD002008BD08B50522C0F86D
:10446800942200231A461946FCF714FD002008BDC3
:1044780010B5D0F8BC4284B1D0F8C0327BB194F802
:104488000002FF280DD09B6894F801222146984726
:10449800FF2384F80032002010BD0320FCE7002031
:1044A800FAE70020F8E7000043230380004870473C
:1044B800A80000204323038000487047EC00002038
:1044C80043230380004870473C0100200A230380EF
:1044D800004870473001002038B5D0F8BC5275B19B
:1044E8000446FCF786FCC5F80C02D4F8C032DB6839
:1044F80005F50371D5F804029847002038BD03205C
:10450800FCE710B5D0F8C442D0F8BC3253B301EB85
:10451800810200EB820292694AB1C1EBC10C04EB43
:104528008C04646CB2FBF4FC04FB1C2272B1002204
:10453800C3F81422D0F8C0221469ACB10A4603F5B6
:104548000471D3F80802A047002010BD01EB8103D5
:1045580000EB830300249C6123462246FCF792FC6F
:104568002046F2E70320F0E70020EEE7F0B583B03D
:10457800D0F8BC6200238DF80730ADF80430002E67
:104588006CD007460C460B7813F060052AD0202D16
:104598005ED1CA88F2B113F0800F0FD0D0F8C032C4
:1045A8009B68314660789847E288072A28BF072227
:1045B80031463846FFF71AFF00254CE04B7886F85D
:1045C80000328B7986F80132CA883146FFF723FF1B
:1045D800002540E0D0F8C0329B6800224878984710
:1045E800002538E04E780B2E2ED8DFE806F006348A
:1045F8002D2D2D2D2D2D2D2D152490F89C32DBB22F
:10460800032B03D0FFF7C8FB032524E0022201A9EE
:10461800FFF7ECFE35461EE090F89C32DBB2032B28
:1046280003D0FFF7B9FB032515E001220DF10701BF
:10463800FFF7DCFE0FE090F89C32DBB2032B0AD0C8
:10464800FFF7AAFB032506E0FFF7A6FB032502E018
:10465800FFF7A2FB0325284603B0F0BD0325FAE7C0
:1046680038B504468121FCF7EDFB0025258701219B
:104678002046FCF7E7FBA4F8785182212046FCF796
:10468800E1FBA4F84C50A4F84E50D4F8BC324BB11E
:10469800D4F8C0325B689847D4F8BC02FCF7B4FB86
:1046A800C4F8BC52002038BD70B504464FF40770FA
:1046B800FCF7A6FBB8B30646C4F8BC02237CBBBB18
:1046C8004FF40073022281212046FCF7B0FB01253C
:1046D80025874FF40073022229462046FCF7A7FBE2
:1046E800A4F878511023A4F84E300823032282211D
:1046F8002046FCF79CFB0123A4F84C30D4F8C032C8
:104708001B6898470023C6F81432C6F81832257C6F
:1047180015BB4FF40073D6F8042201212046FCF79C
:10472800B9FB284670BD0023C4F8BC320225F8E75F
:104738004023022281212046FCF779FB01252587A9
:104748004023022229462046FCF771FBA4F8785141
:104758001023A4F84E30C8E74023D6F804220121DC
:104768002046FCF797FB0025DBE719B1C0F8C0121B
:104778000020704703207047D0F8BC322BB1C3F833
:104788000812C3F810220020704703207047D0F8A1
:10479800BC321BB1C3F804120020704703207047D5
:1047A80010B5D0F8BC2292B1047C44B94FF4007320
:1047B800D2F804220121FCF76DFB204610BD4023EE
:1047C800D2F804220121FCF765FB0024F5E7032455
:1047D800F3E70000DFF834D00D480E490E4A0023F5
:1047E80002E0D458C4500433C4188C42F9D30B4A9D
:1047F8000B4C002301E013600432A242FBD3FCF708
:1048080007F900F011F8FBF7BBFE70470000022023
:1048180000000020AC050020844A0008AC050020F8
:104828006C210020FEE7000070B50D4E0D4D761B83
:10483800B61006D0002455F8043B01349847A64228
:10484800F9D1094E094D761B00F0D4F8B61006D000
:10485800002455F8043B01349847A642F9D170BDAD
:10486800784A0008784A0008804A0008784A000810
:10487800830730B548D0541E002A3FD0CAB2034639
:1048880001E0013C3AD303F8012B9D07F9D1032C31
:104898002DD9CDB245EA05250F2C45EA054536D96F
:1048A800A4F1100222F00F0C03F1200EE6444FEAA7
:1048B800121C03F1100242E9045542E90255103274
:1048C8007245F8D10CF1010214F00C0F03EB02123F
:1048D80004F00F0C13D0ACF1040323F003030433EA
:1048E800134442F8045B9342FBD10CF003042CB14F
:1048F800CAB21C4403F8012B9C42FBD130BD64466C
:104908001346002CF4D1F9E703461446BFE71A46CC
:10491800A446E0E7024B13B1024800F005B870471F
:10492800000000003D490008002301461A461846C9
:1049380000F01AB838B5084B084D5B1B9C1007D01F
:10494800043B1D44013C55F804399847002CF9D123
:10495800BDE8384000F054B8844A0008804A00088E
:10496800704700BF704700BF2DE9F047DFF880A00F
:104978000646DAF8000098460F469146FFF7F0FF22
:104988001A4B1B68D3F8484124B365681F2D26DCF1
:104998005EB96B1C0235DAF80000636044F82570D4
:1049A800FFF7E0FF0020BDE8F08704EB8501012355
:1049B800C1F88890D4F88821AB401A43022EC4F875
:1049C8008821C1F80881E4D1D4F88C211343C4F8B4
:1049D8008C31DEE703F5A674C3F84841D5E7DAF869
:1049E8000000FFF7BFFF4FF0FF30DCE76C4A00081C
:1049F800A8050020F8B500BFF8BC08BC9E46704763
:0C4A0800F8B500BFF8BC08BC9E46704723
:104A1400000000000000000001020304060708096A
:104A240053544D3332205669727475616C20436F50
:104A34006D506F727400000053544D6963726F655A
:104A44006C656374726F6E69637300004344432042
:104A5400436F6E666967000043444320496E746582
:0C4A6400726661636500000080010020A4
:084A700098B7FF7F0100000070
:084A78001D490008BD01000802
:044A80009901000890
:104A84000024F400810A00088D0A0008510B000874
:104A94002D0B0008190B00086D0B0008910B000882
:104AA4001201000202020040830440570002010286
:104AB40003010000040309041A03000000000000BD
:104AC40000000000000000000000000000000000E2
:104AD40000000000DD0B0008B50B0008B90B00084E
:104AE400C10B0008BD0B000801000000100000000D
:104AF400B14600086946000875450008000000003A
:104B0400794400080B450008E14400080000000057
:104B14000000000000000000BD440008B14400088B
:104B2400C9440008D544000809024300020100C03A
:104B340032090400000102020100052400100105ED
:104B44002401000104240202052406000107058251
:104B54000308001009040100020A0000000705010F
:104B640002400000070581024000000009024300E2
:104B7400020100C032090400000102020100052400
:104B8400001001052401000104240202052406008A
:104B9400010705820308001009040100020A00004D
:104BA400000705010200020007058102000200005F
:104BB4000A0600020000004001000000090743004B
:104BC400020104C0320904000001020201000524AC
:104BD400001001052401000104240202052406003A
:104BE400010705820308001009040100020A0000FD
:104BF4000007050102400000070581024000000093
:104C0400000000006C040020D40400203C050020B7
:104C14000000000000000000000000000000000090
:104C24000000000000000000000000000000000080
:104C34000000000000000000000000000000000070
:104C44000000000000000000000000000000000060
:104C54000000000000000000000000000000000050
:104C64000000000000000000000000000000000040
:104C74000000000000000000000000000000000030
:104C84000000000000000000000000000000000020
:104C94000000000000000000000000000000000010
:104CA40000000000000000000100000000000000FF
:104CB4000E33CDAB34126DE6ECDE05000B000000C4
:104CC40000000000000000000000000000000000E0
:104CD40000000000000000000000000000000000D0
:104CE40000000000000000000000000000000000C0
:104CF40000000000000000000000000000000000B0
:0C502400000000000000000068210020D7
:04000005080047DDCB
:00000001FF
